{
    "contractName": "Compras",
    "abi": [
        {
            "inputs": [],
            "name": "activar",
            "outputs": [],
            "stateMutability": "nonpayable",
            "type": "function"
        },
        {
            "inputs": [
                {
                    "internalType": "address",
                    "name": "_comprador",
                    "type": "address"
                },
                {
                    "internalType": "uint256",
                    "name": "_precio",
                    "type": "uint256"
                },
                {
                    "internalType": "string[]",
                    "name": "_articulos",
                    "type": "string[]"
                }
            ],
            "name": "agregarCompra",
            "outputs": [],
            "stateMutability": "nonpayable",
            "type": "function"
        },
        {
            "inputs": [],
            "name": "compraCount",
            "outputs": [
                {
                    "internalType": "uint256",
                    "name": "",
                    "type": "uint256"
                }
            ],
            "stateMutability": "view",
            "type": "function"
        },
        {
            "inputs": [
                {
                    "internalType": "uint256",
                    "name": "",
                    "type": "uint256"
                }
            ],
            "name": "compras",
            "outputs": [
                {
                    "internalType": "uint256",
                    "name": "_id",
                    "type": "uint256"
                },
                {
                    "internalType": "address",
                    "name": "usuarioComprador",
                    "type": "address"
                },
                {
                    "internalType": "uint256",
                    "name": "precio",
                    "type": "uint256"
                }
            ],
            "stateMutability": "view",
            "type": "function"
        },
        {
            "inputs": [],
            "name": "estado",
            "outputs": [
                {
                    "internalType": "enum Compras.Estado",
                    "name": "",
                    "type": "uint8"
                }
            ],
            "stateMutability": "view",
            "type": "function"
        },
        {
            "inputs": [],
            "name": "habilitarAgregarCompras",
            "outputs": [],
            "stateMutability": "nonpayable",
            "type": "function"
        },
        {
            "inputs": [],
            "name": "habilitarConsultaCompras",
            "outputs": [],
            "stateMutability": "nonpayable",
            "type": "function"
        },
        {
            "inputs": [
                {
                    "internalType": "uint256",
                    "name": "_id",
                    "type": "uint256"
                }
            ],
            "name": "obtenerCompra",
            "outputs": [
                {
                    "components": [
                        {
                            "internalType": "uint256",
                            "name": "_id",
                            "type": "uint256"
                        },
                        {
                            "internalType": "address",
                            "name": "usuarioComprador",
                            "type": "address"
                        },
                        {
                            "internalType": "uint256",
                            "name": "precio",
                            "type": "uint256"
                        },
                        {
                            "internalType": "string[]",
                            "name": "articulos",
                            "type": "string[]"
                        }
                    ],
                    "internalType": "struct Compras.Compra",
                    "name": "",
                    "type": "tuple"
                }
            ],
            "stateMutability": "view",
            "type": "function"
        }
    ],
    "bytecode": "608060405234801561001057600080fd5b506109bb806100206000396000f3fe608060405234801561001057600080fd5b50600436106100885760003560e01c8063688e34671161005b578063688e346714610118578063cea6c51a14610132578063e022627f14610145578063f26306741461016557600080fd5b806314ff01c21461008d57806322652517146100ef5780632dd47cac146101065780633613b44514610110575b600080fd5b6100c761009b366004610571565b60026020819052600091825260409091208054600182015491909201546001600160a01b039091169083565b604080519384526001600160a01b039092166020840152908201526060015b60405180910390f35b6100f860015481565b6040519081526020016100e6565b61010e61016d565b005b61010e610182565b6000546101259060ff1681565b6040516100e691906105a0565b61010e61014036600461060f565b610196565b610158610153366004610571565b6102b0565b6040516100e69190610750565b61010e610480565b60008054819060ff19166001825b0217905550565b600080546002919060ff191660018361017b565b600260005460ff1660028111156101af576101af61058a565b14806101d057506000805460ff1660028111156101ce576101ce61058a565b145b6102215760405162461bcd60e51b815260206004820152601b60248201527f536f6c6f207075656465206167726567617220636f6d707261732e000000000060448201526064015b60405180910390fd5b610229610493565b60408051608081018252600180548083526001600160a01b03878116602080860191825285870189815260608701898152600095865260028084529890952087518155925195830180546001600160a01b0319169690941695909517909255925194830194909455518051929391926102a892600385019201906104ac565b505050505050565b6102e460405180608001604052806000815260200160006001600160a01b0316815260200160008152602001606081525090565b600160005460ff1660028111156102fd576102fd61058a565b148061031e57506000805460ff16600281111561031c5761031c61058a565b145b61036a5760405162461bcd60e51b815260206004820152601d60248201527f536f6c6f20707565646520636f6e73756c74617220636f6d707261732e0000006044820152606401610218565b600082815260026020818152604080842081516080810183528154815260018201546001600160a01b03168185015293810154848301526003810180548351818602810186019094528084529495919460608701949192909184015b828210156104725783829060005260206000200180546103e59061081a565b80601f01602080910402602001604051908101604052809291908181526020018280546104119061081a565b801561045e5780601f106104335761010080835404028352916020019161045e565b820191906000526020600020905b81548152906001019060200180831161044157829003601f168201915b5050505050815260200190600101906103c6565b505050915250909392505050565b600080546001919060ff1916828061017b565b60018060008282546104a59190610854565b9091555050565b8280548282559060005260206000209081019282156104f2579160200282015b828111156104f257825182906104e290826108c5565b50916020019190600101906104cc565b506104fe929150610502565b5090565b808211156104fe576000610516828261051f565b50600101610502565b50805461052b9061081a565b6000825580601f1061053b575050565b601f016020900490600052602060002090810190610559919061055c565b50565b5b808211156104fe576000815560010161055d565b60006020828403121561058357600080fd5b5035919050565b634e487b7160e01b600052602160045260246000fd5b60208101600383106105c257634e487b7160e01b600052602160045260246000fd5b91905290565b634e487b7160e01b600052604160045260246000fd5b604051601f8201601f1916810167ffffffffffffffff81118282101715610607576106076105c8565b604052919050565b60008060006060848603121561062457600080fd5b83356001600160a01b038116811461063b57600080fd5b9250602084810135925060408086013567ffffffffffffffff8082111561066157600080fd5b818801915088601f83011261067557600080fd5b813581811115610687576106876105c8565b8060051b6106968682016105de565b918252838101860191868101908c8411156106b057600080fd5b87860192505b8383101561073e578235858111156106ce5760008081fd5b8601603f81018e136106e05760008081fd5b88810135868111156106f4576106f46105c8565b610706601f8201601f19168b016105de565b8181528f8a83850101111561071b5760008081fd5b818a84018c83013760009181018b019190915283525091870191908701906106b6565b80985050505050505050509250925092565b6000602080835260a0830184518285015260018060a01b038286015116604085015260408501516060850152606085015160808086015281815180845260c08701915060c08160051b880101935084830192506000805b8281101561080c5788860360bf1901845284518051808852835b818110156107dc578281018a01518982018b015289016107c1565b818111156107ec57848a838b0101525b50601f01601f1916969096018701955093860193928601926001016107a7565b509398975050505050505050565b600181811c9082168061082e57607f821691505b60208210810361084e57634e487b7160e01b600052602260045260246000fd5b50919050565b6000821982111561087557634e487b7160e01b600052601160045260246000fd5b500190565b601f8211156108c057600081815260208120601f850160051c810160208610156108a15750805b601f850160051c820191505b818110156102a8578281556001016108ad565b505050565b815167ffffffffffffffff8111156108df576108df6105c8565b6108f3816108ed845461081a565b8461087a565b602080601f83116001811461092857600084156109105750858301515b600019600386901b1c1916600185901b1785556102a8565b600085815260208120601f198616915b8281101561095757888601518255948401946001909101908401610938565b50858210156109755787850151600019600388901b60f8161c191681555b5050505050600190811b0190555056fea2646970667358221220dc75494fa7722abe5d4c7ddf8b859f558932f5c7edd8e01efc486c48f02e66f164736f6c634300080f0033",
    "sourcePath": "c:/Users/Stephanie Pazos/Desktop/Bolckchain/difficult-blockchain/contracts/Compras.sol",
    "compiler": {
        "name": "solc",
        "version": "0.8.15+commit.e14f2714"
    },
    "functionHashes": {
        "activar()": "2dd47cac",
        "agregarCompra(address,uint256,string[])": "cea6c51a",
        "compraCount()": "22652517",
        "compras(uint256)": "14ff01c2",
        "estado()": "688e3467",
        "habilitarAgregarCompras()": "3613b445",
        "habilitarConsultaCompras()": "f2630674",
        "obtenerCompra(uint256)": "e022627f"
    },
    "gasEstimates": {
        "creation": {
            "codeDepositCost": "498200",
            "executionCost": "530",
            "totalCost": "498730"
        },
        "external": {
            "activar()": "24430",
            "agregarCompra(address,uint256,string[])": "infinite",
            "compraCount()": "2318",
            "compras(uint256)": "6745",
            "estado()": "2351",
            "habilitarAgregarCompras()": "24466",
            "habilitarConsultaCompras()": "24465",
            "obtenerCompra(uint256)": "infinite"
        },
        "internal": {
            "incrementarCompras()": "24304"
        }
    }
}