{
    "contractName": "Usuarios",
    "abi": [
        {
            "inputs": [
                {
                    "internalType": "uint256",
                    "name": "_saldo",
                    "type": "uint256"
                }
            ],
            "name": "agregarSaldo",
            "outputs": [],
            "stateMutability": "nonpayable",
            "type": "function"
        },
        {
            "inputs": [],
            "name": "usuario",
            "outputs": [
                {
                    "internalType": "address",
                    "name": "",
                    "type": "address"
                }
            ],
            "stateMutability": "view",
            "type": "function"
        }
    ],
    "bytecode": "6080604052600060015534801561001557600080fd5b50610158806100256000396000f3fe608060405234801561001057600080fd5b50600436106100365760003560e01c80634768e0121461003b5780639eddbd271461006a575b600080fd5b60005461004e906001600160a01b031681565b6040516001600160a01b03909116815260200160405180910390f35b61007d6100783660046100e3565b61007f565b005b600081116100c95760405162461bcd60e51b815260206004820152601360248201527222b73a3932b3b0903630903a30b930b9b1b09760691b604482015260640160405180910390fd5b80600160008282546100db91906100fc565b909155505050565b6000602082840312156100f557600080fd5b5035919050565b6000821982111561011d57634e487b7160e01b600052601160045260246000fd5b50019056fea2646970667358221220c63d54ec766b381c6c1f7a69e281fa018afb6975806c0828c8bebe8e171c4b5464736f6c634300080f0033",
    "sourcePath": "c:/Users/Stephanie Pazos/Desktop/Bolckchain/difficult-blockchain/contracts/Usuarios.sol",
    "compiler": {
        "name": "solc",
        "version": "0.8.15+commit.e14f2714"
    },
    "functionHashes": {
        "agregarSaldo(uint256)": "9eddbd27",
        "usuario()": "4768e012"
    },
    "gasEstimates": {
        "creation": {
            "codeDepositCost": "68800",
            "executionCost": "5123",
            "totalCost": "73923"
        },
        "external": {
            "agregarSaldo(uint256)": "24541",
            "usuario()": "2303"
        }
    }
}