{
  "contractName": "Compras",
  "abi": [
    {
      "inputs": [],
      "name": "compraCount",
      "outputs": [
        {
          "internalType": "uint256",
          "name": "",
          "type": "uint256"
        }
      ],
      "stateMutability": "view",
      "type": "function"
    },
    {
      "inputs": [
        {
          "internalType": "uint256",
          "name": "",
          "type": "uint256"
        }
      ],
      "name": "compras",
      "outputs": [
        {
          "internalType": "uint256",
          "name": "_id",
          "type": "uint256"
        },
        {
          "internalType": "address",
          "name": "usuarioComprador",
          "type": "address"
        },
        {
          "internalType": "uint256",
          "name": "precio",
          "type": "uint256"
        }
      ],
      "stateMutability": "view",
      "type": "function"
    },
    {
      "inputs": [
        {
          "internalType": "uint256",
          "name": "_id",
          "type": "uint256"
        }
      ],
      "name": "obtenerCompra",
      "outputs": [
        {
          "components": [
            {
              "internalType": "uint256",
              "name": "_id",
              "type": "uint256"
            },
            {
              "internalType": "address",
              "name": "usuarioComprador",
              "type": "address"
            },
            {
              "internalType": "uint256",
              "name": "precio",
              "type": "uint256"
            },
            {
              "internalType": "string[]",
              "name": "articulos",
              "type": "string[]"
            }
          ],
          "internalType": "struct Compras.Compra",
          "name": "",
          "type": "tuple"
        }
      ],
      "stateMutability": "view",
      "type": "function"
    },
    {
      "inputs": [],
      "name": "agregarCompra",
      "outputs": [],
      "stateMutability": "nonpayable",
      "type": "function"
    }
  ],
  "bytecode": "0x60806040526000805534801561001457600080fd5b50610709806100246000396000f3fe608060405234801561001057600080fd5b506004361061004c5760003560e01c806314ff01c2146100515780632265251714610083578063e022627f146100a1578063ff8decfb146100d1575b600080fd5b61006b6004803603810190610066919061032d565b6100db565b60405161007a939291906103aa565b60405180910390f35b61008b610125565b60405161009891906103e1565b60405180910390f35b6100bb60048036038101906100b6919061032d565b61012b565b6040516100c891906105d8565b60405180910390f35b6100d961029b565b005b60016020528060005260406000206000915090508060000154908060010160009054906101000a900473ffffffffffffffffffffffffffffffffffffffff16908060020154905083565b60005481565b6101336102b4565b60016000838152602001908152602001600020604051806080016040529081600082015481526020016001820160009054906101000a900473ffffffffffffffffffffffffffffffffffffffff1673ffffffffffffffffffffffffffffffffffffffff1673ffffffffffffffffffffffffffffffffffffffff1681526020016002820154815260200160038201805480602002602001604051908101604052809291908181526020016000905b8282101561028c5783829060005260206000200180546101ff90610629565b80601f016020809104026020016040519081016040528092919081815260200182805461022b90610629565b80156102785780601f1061024d57610100808354040283529160200191610278565b820191906000526020600020905b81548152906001019060200180831161025b57829003601f168201915b5050505050815260200190600101906101e0565b50505050815250509050919050565b6000808154809291906102ad9061068a565b9190505550565b604051806080016040528060008152602001600073ffffffffffffffffffffffffffffffffffffffff16815260200160008152602001606081525090565b600080fd5b6000819050919050565b61030a816102f7565b811461031557600080fd5b50565b60008135905061032781610301565b92915050565b600060208284031215610343576103426102f2565b5b600061035184828501610318565b91505092915050565b610363816102f7565b82525050565b600073ffffffffffffffffffffffffffffffffffffffff82169050919050565b600061039482610369565b9050919050565b6103a481610389565b82525050565b60006060820190506103bf600083018661035a565b6103cc602083018561039b565b6103d9604083018461035a565b949350505050565b60006020820190506103f6600083018461035a565b92915050565b610405816102f7565b82525050565b61041481610389565b82525050565b600081519050919050565b600082825260208201905092915050565b6000819050602082019050919050565b600081519050919050565b600082825260208201905092915050565b60005b83811015610480578082015181840152602081019050610465565b8381111561048f576000848401525b50505050565b6000601f19601f8301169050919050565b60006104b182610446565b6104bb8185610451565b93506104cb818560208601610462565b6104d481610495565b840191505092915050565b60006104eb83836104a6565b905092915050565b6000602082019050919050565b600061050b8261041a565b6105158185610425565b93508360208202850161052785610436565b8060005b85811015610563578484038952815161054485826104df565b945061054f836104f3565b925060208a0199505060018101905061052b565b50829750879550505050505092915050565b600060808301600083015161058d60008601826103fc565b5060208301516105a0602086018261040b565b5060408301516105b360408601826103fc565b50606083015184820360608601526105cb8282610500565b9150508091505092915050565b600060208201905081810360008301526105f28184610575565b905092915050565b7f4e487b7100000000000000000000000000000000000000000000000000000000600052602260045260246000fd5b6000600282049050600182168061064157607f821691505b60208210811415610655576106546105fa565b5b50919050565b7f4e487b7100000000000000000000000000000000000000000000000000000000600052601160045260246000fd5b6000610695826102f7565b91507fffffffffffffffffffffffffffffffffffffffffffffffffffffffffffffffff8214156106c8576106c761065b565b5b60018201905091905056fea26469706673582212206f685688b820ae156e2727a072caaa2021967cc4eb2eebbbc9ed087819d0c70464736f6c634300080b0033",
  "immutableReferences": {},
  "source": "// SPDX-License-Identifier: MIT\npragma solidity >=0.4.22 <0.9.0;\n\ncontract Compras {\n  enum estados { ACTIVO, LECTURA, BOOTSTRAP }\n  uint public compraCount = 0;\n  mapping(uint => Compra) public compras;\n  \n  struct Compra {\n      uint _id;\n      address usuarioComprador;\n      uint precio;\n      string[] articulos;\n  }\n\n  function obtenerCompra(uint _id) public view returns(Compra memory) {   \n    return compras[_id];\n  }\n\n  function agregarCompra() public {\n    compraCount++;\n  }\n}\n",
  "sourcePath": "F:\\Truffle\\PHM\\Entrega4\\difficult\\contracts\\Compras.sol",
  "compiler": {
    "name": "solc",
    "version": "0.8.11+commit.d7f03943.Emscripten.clang"
  },
  "schemaVersion": "3.4.4",
  "updatedAt": "2022-06-22T00:11:31.009Z",
  "devdoc": {
    "kind": "dev",
    "methods": {},
    "version": 1
  },
  "userdoc": {
    "kind": "user",
    "methods": {},
    "version": 1
  }
}