{
  "contractName": "Compras",
  "abi": [
    {
      "inputs": [],
      "name": "compraCount",
      "outputs": [
        {
          "internalType": "uint256",
          "name": "",
          "type": "uint256"
        }
      ],
      "stateMutability": "view",
      "type": "function"
    },
    {
      "inputs": [
        {
          "internalType": "uint256",
          "name": "",
          "type": "uint256"
        }
      ],
      "name": "compras",
      "outputs": [
        {
          "internalType": "uint256",
          "name": "_id",
          "type": "uint256"
        },
        {
          "internalType": "address",
          "name": "usuarioComprador",
          "type": "address"
        },
        {
          "internalType": "uint256",
          "name": "precio",
          "type": "uint256"
        }
      ],
      "stateMutability": "view",
      "type": "function"
    },
    {
      "inputs": [
        {
          "internalType": "uint256",
          "name": "_id",
          "type": "uint256"
        }
      ],
      "name": "obtenerCompra",
      "outputs": [
        {
          "components": [
            {
              "internalType": "uint256",
              "name": "_id",
              "type": "uint256"
            },
            {
              "internalType": "address",
              "name": "usuarioComprador",
              "type": "address"
            },
            {
              "internalType": "uint256",
              "name": "precio",
              "type": "uint256"
            },
            {
              "internalType": "string[]",
              "name": "articulos",
              "type": "string[]"
            }
          ],
          "internalType": "struct Compras.Compra",
          "name": "",
          "type": "tuple"
        }
      ],
      "stateMutability": "view",
      "type": "function"
    },
    {
      "inputs": [
        {
          "internalType": "address",
          "name": "_comprador",
          "type": "address"
        },
        {
          "internalType": "uint256",
          "name": "_precio",
          "type": "uint256"
        },
        {
          "internalType": "string[]",
          "name": "_articulos",
          "type": "string[]"
        }
      ],
      "name": "agregarCompra",
      "outputs": [],
      "stateMutability": "nonpayable",
      "type": "function"
    }
  ],
  "bytecode": "0x6080604052600060015534801561001557600080fd5b50610ead806100256000396000f3fe608060405234801561001057600080fd5b506004361061004c5760003560e01c806314ff01c2146100515780632265251714610083578063cea6c51a146100a1578063e022627f146100bd575b600080fd5b61006b600480360381019061006691906106dd565b6100ed565b60405161007a9392919061075a565b60405180910390f35b61008b610137565b6040516100989190610791565b60405180910390f35b6100bb60048036038101906100b69190610a04565b61013d565b005b6100d760048036038101906100d291906106dd565b61030a565b6040516100e49190610c3e565b60405180910390f35b60026020528060005260406000206000915090508060000154908060010160009054906101000a900473ffffffffffffffffffffffffffffffffffffffff16908060020154905083565b60015481565b6000600281111561015157610150610c60565b5b60008054906101000a900460ff16600281111561017157610170610c60565b5b146101b1576040517f08c379a00000000000000000000000000000000000000000000000000000000081526004016101a890610d12565b60405180910390fd5b6002808111156101c4576101c3610c60565b5b60008054906101000a900460ff1660028111156101e4576101e3610c60565b5b14610224576040517f08c379a000000000000000000000000000000000000000000000000000000000815260040161021b90610d7e565b60405180910390fd5b6001600081548092919061023790610dcd565b9190505550604051806080016040528060015481526020018473ffffffffffffffffffffffffffffffffffffffff168152602001838152602001828152506002600060015481526020019081526020016000206000820151816000015560208201518160010160006101000a81548173ffffffffffffffffffffffffffffffffffffffff021916908373ffffffffffffffffffffffffffffffffffffffff1602179055506040820151816002015560608201518160030190805190602001906103019291906104ee565b50905050505050565b61031261054e565b6000600281111561032657610325610c60565b5b60008054906101000a900460ff16600281111561034657610345610c60565b5b14610386576040517f08c379a000000000000000000000000000000000000000000000000000000000815260040161037d90610d12565b60405180910390fd5b60026000838152602001908152602001600020604051806080016040529081600082015481526020016001820160009054906101000a900473ffffffffffffffffffffffffffffffffffffffff1673ffffffffffffffffffffffffffffffffffffffff1673ffffffffffffffffffffffffffffffffffffffff1681526020016002820154815260200160038201805480602002602001604051908101604052809291908181526020016000905b828210156104df57838290600052602060002001805461045290610e45565b80601f016020809104026020016040519081016040528092919081815260200182805461047e90610e45565b80156104cb5780601f106104a0576101008083540402835291602001916104cb565b820191906000526020600020905b8154815290600101906020018083116104ae57829003601f168201915b505050505081526020019060010190610433565b50505050815250509050919050565b82805482825590600052602060002090810192821561053d579160200282015b8281111561053c57825182908051906020019061052c92919061058c565b509160200191906001019061050e565b5b50905061054a9190610612565b5090565b604051806080016040528060008152602001600073ffffffffffffffffffffffffffffffffffffffff16815260200160008152602001606081525090565b82805461059890610e45565b90600052602060002090601f0160209004810192826105ba5760008555610601565b82601f106105d357805160ff1916838001178555610601565b82800160010185558215610601579182015b828111156106005782518255916020019190600101906105e5565b5b50905061060e9190610636565b5090565b5b8082111561063257600081816106299190610653565b50600101610613565b5090565b5b8082111561064f576000816000905550600101610637565b5090565b50805461065f90610e45565b6000825580601f106106715750610690565b601f01602090049060005260206000209081019061068f9190610636565b5b50565b6000604051905090565b600080fd5b600080fd5b6000819050919050565b6106ba816106a7565b81146106c557600080fd5b50565b6000813590506106d7816106b1565b92915050565b6000602082840312156106f3576106f261069d565b5b6000610701848285016106c8565b91505092915050565b610713816106a7565b82525050565b600073ffffffffffffffffffffffffffffffffffffffff82169050919050565b600061074482610719565b9050919050565b61075481610739565b82525050565b600060608201905061076f600083018661070a565b61077c602083018561074b565b610789604083018461070a565b949350505050565b60006020820190506107a6600083018461070a565b92915050565b6107b581610739565b81146107c057600080fd5b50565b6000813590506107d2816107ac565b92915050565b600080fd5b6000601f19601f8301169050919050565b7f4e487b7100000000000000000000000000000000000000000000000000000000600052604160045260246000fd5b610826826107dd565b810181811067ffffffffffffffff82111715610845576108446107ee565b5b80604052505050565b6000610858610693565b9050610864828261081d565b919050565b600067ffffffffffffffff821115610884576108836107ee565b5b602082029050602081019050919050565b600080fd5b600080fd5b600067ffffffffffffffff8211156108ba576108b96107ee565b5b6108c3826107dd565b9050602081019050919050565b82818337600083830152505050565b60006108f26108ed8461089f565b61084e565b90508281526020810184848401111561090e5761090d61089a565b5b6109198482856108d0565b509392505050565b600082601f830112610936576109356107d8565b5b81356109468482602086016108df565b91505092915050565b600061096261095d84610869565b61084e565b9050808382526020820190506020840283018581111561098557610984610895565b5b835b818110156109cc57803567ffffffffffffffff8111156109aa576109a96107d8565b5b8086016109b78982610921565b85526020850194505050602081019050610987565b5050509392505050565b600082601f8301126109eb576109ea6107d8565b5b81356109fb84826020860161094f565b91505092915050565b600080600060608486031215610a1d57610a1c61069d565b5b6000610a2b868287016107c3565b9350506020610a3c868287016106c8565b925050604084013567ffffffffffffffff811115610a5d57610a5c6106a2565b5b610a69868287016109d6565b9150509250925092565b610a7c816106a7565b82525050565b610a8b81610739565b82525050565b600081519050919050565b600082825260208201905092915050565b6000819050602082019050919050565b600081519050919050565b600082825260208201905092915050565b60005b83811015610af7578082015181840152602081019050610adc565b83811115610b06576000848401525b50505050565b6000610b1782610abd565b610b218185610ac8565b9350610b31818560208601610ad9565b610b3a816107dd565b840191505092915050565b6000610b518383610b0c565b905092915050565b6000602082019050919050565b6000610b7182610a91565b610b7b8185610a9c565b935083602082028501610b8d85610aad565b8060005b85811015610bc95784840389528151610baa8582610b45565b9450610bb583610b59565b925060208a01995050600181019050610b91565b50829750879550505050505092915050565b6000608083016000830151610bf36000860182610a73565b506020830151610c066020860182610a82565b506040830151610c196040860182610a73565b5060608301518482036060860152610c318282610b66565b9150508091505092915050565b60006020820190508181036000830152610c588184610bdb565b905092915050565b7f4e487b7100000000000000000000000000000000000000000000000000000000600052602160045260246000fd5b600082825260208201905092915050565b7f456c20636f6e747261746f20646562652065737461722061637469766f20706160008201527f7261207265616c697a6172206c61207472616e73616363696f6e2e0000000000602082015250565b6000610cfc603b83610c8f565b9150610d0782610ca0565b604082019050919050565b60006020820190508181036000830152610d2b81610cef565b9050919050565b7f536f6c6f207075656465206167726567617220636f6d707261732e0000000000600082015250565b6000610d68601b83610c8f565b9150610d7382610d32565b602082019050919050565b60006020820190508181036000830152610d9781610d5b565b9050919050565b7f4e487b7100000000000000000000000000000000000000000000000000000000600052601160045260246000fd5b6000610dd8826106a7565b91507fffffffffffffffffffffffffffffffffffffffffffffffffffffffffffffffff821415610e0b57610e0a610d9e565b5b600182019050919050565b7f4e487b7100000000000000000000000000000000000000000000000000000000600052602260045260246000fd5b60006002820490506001821680610e5d57607f821691505b60208210811415610e7157610e70610e16565b5b5091905056fea2646970667358221220e4298c08fe7e8d80ea73366d04cdaee9615848f6b44ea87ca47785f900fe940364736f6c634300080b0033",
  "immutableReferences": {},
  "source": "// SPDX-License-Identifier: MIT\npragma solidity >=0.4.22 <0.9.0;\n\ncontract Compras {\n  enum Estado { ACTIVO, LECTURA, BOOTSTRAP }\n  Estado estado;\n  uint public compraCount = 0;\n  mapping(uint => Compra) public compras;\n\n  modifier activo() {\n    require(estado == Estado.ACTIVO, \"El contrato debe estar activo para realizar la transaccion.\");\n    _; \n  }\n\n  modifier bootstrap() {\n    require(estado == Estado.BOOTSTRAP, \"Solo puede agregar compras.\"); \n    _;  \n  }\n\n  modifier lectura() {\n    require(estado == Estado.LECTURA, \"Solo puede consultar compras.\"); \n    _;\n  }\n\n  struct Compra {\n      uint _id;\n      address usuarioComprador;\n      uint precio;\n      string[] articulos;\n  }\n\n  function obtenerCompra(uint _id) public activo view returns(Compra memory) {   \n    return compras[_id];\n  }\n\n  function agregarCompra(address _comprador, uint _precio, string[] memory _articulos) public activo bootstrap {\n    compraCount++;\n    compras[compraCount] = Compra(compraCount, _comprador, _precio, _articulos);\n  }\n}\n",
  "sourcePath": "F:\\Truffle\\PHM\\Entrega4\\difficult\\contracts\\Compras.sol",
  "compiler": {
    "name": "solc",
    "version": "0.8.11+commit.d7f03943.Emscripten.clang"
  },
  "schemaVersion": "3.4.4",
  "updatedAt": "2022-06-22T01:05:12.929Z",
  "devdoc": {
    "kind": "dev",
    "methods": {},
    "version": 1
  },
  "userdoc": {
    "kind": "user",
    "methods": {},
    "version": 1
  }
}