{
  "contractName": "Compras",
  "abi": [
    {
      "inputs": [],
      "name": "compraCount",
      "outputs": [
        {
          "internalType": "uint256",
          "name": "",
          "type": "uint256"
        }
      ],
      "stateMutability": "view",
      "type": "function"
    },
    {
      "inputs": [
        {
          "internalType": "uint256",
          "name": "",
          "type": "uint256"
        }
      ],
      "name": "compras",
      "outputs": [
        {
          "internalType": "uint256",
          "name": "_id",
          "type": "uint256"
        },
        {
          "internalType": "address",
          "name": "usuarioComprador",
          "type": "address"
        },
        {
          "internalType": "uint256",
          "name": "precio",
          "type": "uint256"
        }
      ],
      "stateMutability": "view",
      "type": "function"
    },
    {
      "inputs": [],
      "name": "estado",
      "outputs": [
        {
          "internalType": "enum Compras.Estado",
          "name": "",
          "type": "uint8"
        }
      ],
      "stateMutability": "view",
      "type": "function"
    },
    {
      "inputs": [
        {
          "internalType": "uint256",
          "name": "_id",
          "type": "uint256"
        }
      ],
      "name": "obtenerCompra",
      "outputs": [
        {
          "components": [
            {
              "internalType": "uint256",
              "name": "_id",
              "type": "uint256"
            },
            {
              "internalType": "address",
              "name": "usuarioComprador",
              "type": "address"
            },
            {
              "internalType": "uint256",
              "name": "precio",
              "type": "uint256"
            },
            {
              "internalType": "string[]",
              "name": "articulos",
              "type": "string[]"
            }
          ],
          "internalType": "struct Compras.Compra",
          "name": "",
          "type": "tuple"
        }
      ],
      "stateMutability": "view",
      "type": "function"
    },
    {
      "inputs": [
        {
          "internalType": "address",
          "name": "_comprador",
          "type": "address"
        },
        {
          "internalType": "uint256",
          "name": "_precio",
          "type": "uint256"
        },
        {
          "internalType": "string[]",
          "name": "_articulos",
          "type": "string[]"
        }
      ],
      "name": "agregarCompra",
      "outputs": [],
      "stateMutability": "nonpayable",
      "type": "function"
    },
    {
      "inputs": [],
      "name": "activar",
      "outputs": [],
      "stateMutability": "nonpayable",
      "type": "function"
    },
    {
      "inputs": [],
      "name": "habilitarAgregarCompras",
      "outputs": [],
      "stateMutability": "nonpayable",
      "type": "function"
    },
    {
      "inputs": [],
      "name": "habilitarConsultaCompras",
      "outputs": [],
      "stateMutability": "nonpayable",
      "type": "function"
    }
  ],
  "bytecode": "0x608060405234801561001057600080fd5b50611013806100206000396000f3fe608060405234801561001057600080fd5b50600436106100885760003560e01c8063688e34671161005b578063688e3467146100f1578063cea6c51a1461010f578063e022627f1461012b578063f26306741461015b57610088565b806314ff01c21461008d57806322652517146100bf5780632dd47cac146100dd5780633613b445146100e7575b600080fd5b6100a760048036038101906100a291906107f9565b610165565b6040516100b693929190610876565b60405180910390f35b6100c76101af565b6040516100d491906108ad565b60405180910390f35b6100e56101b5565b005b6100ef6101e1565b005b6100f961020d565b604051610106919061093f565b60405180910390f35b61012960048036038101906101249190610bb2565b61021e565b005b610145600480360381019061014091906107f9565b6103a3565b6040516101529190610dec565b60405180910390f35b6101636105c3565b005b60026020528060005260406000206000915090508060000154908060010160009054906101000a900473ffffffffffffffffffffffffffffffffffffffff16908060020154905083565b60015481565b60008060006101000a81548160ff021916908360028111156101da576101d96108c8565b5b0217905550565b60026000806101000a81548160ff02191690836002811115610206576102056108c8565b5b0217905550565b60008054906101000a900460ff1681565b600280811115610231576102306108c8565b5b60008054906101000a900460ff166002811115610251576102506108c8565b5b148061028e57506000600281111561026c5761026b6108c8565b5b60008054906101000a900460ff16600281111561028c5761028b6108c8565b5b145b6102cd576040517f08c379a00000000000000000000000000000000000000000000000000000000081526004016102c490610e6b565b60405180910390fd5b6102d56105ef565b604051806080016040528060015481526020018473ffffffffffffffffffffffffffffffffffffffff168152602001838152602001828152506002600060015481526020019081526020016000206000820151816000015560208201518160010160006101000a81548173ffffffffffffffffffffffffffffffffffffffff021916908373ffffffffffffffffffffffffffffffffffffffff16021790555060408201518160020155606082015181600301908051906020019061039a92919061060a565b50905050505050565b6103ab61066a565b600160028111156103bf576103be6108c8565b5b60008054906101000a900460ff1660028111156103df576103de6108c8565b5b148061041c5750600060028111156103fa576103f96108c8565b5b60008054906101000a900460ff16600281111561041a576104196108c8565b5b145b61045b576040517f08c379a000000000000000000000000000000000000000000000000000000000815260040161045290610ed7565b60405180910390fd5b60026000838152602001908152602001600020604051806080016040529081600082015481526020016001820160009054906101000a900473ffffffffffffffffffffffffffffffffffffffff1673ffffffffffffffffffffffffffffffffffffffff1673ffffffffffffffffffffffffffffffffffffffff1681526020016002820154815260200160038201805480602002602001604051908101604052809291908181526020016000905b828210156105b457838290600052602060002001805461052790610f26565b80601f016020809104026020016040519081016040528092919081815260200182805461055390610f26565b80156105a05780601f10610575576101008083540402835291602001916105a0565b820191906000526020600020905b81548152906001019060200180831161058357829003601f168201915b505050505081526020019060010190610508565b50505050815250509050919050565b60016000806101000a81548160ff021916908360028111156105e8576105e76108c8565b5b0217905550565b60018060008282546106019190610f87565b92505081905550565b828054828255906000526020600020908101928215610659579160200282015b828111156106585782518290805190602001906106489291906106a8565b509160200191906001019061062a565b5b509050610666919061072e565b5090565b604051806080016040528060008152602001600073ffffffffffffffffffffffffffffffffffffffff16815260200160008152602001606081525090565b8280546106b490610f26565b90600052602060002090601f0160209004810192826106d6576000855561071d565b82601f106106ef57805160ff191683800117855561071d565b8280016001018555821561071d579182015b8281111561071c578251825591602001919060010190610701565b5b50905061072a9190610752565b5090565b5b8082111561074e5760008181610745919061076f565b5060010161072f565b5090565b5b8082111561076b576000816000905550600101610753565b5090565b50805461077b90610f26565b6000825580601f1061078d57506107ac565b601f0160209004906000526020600020908101906107ab9190610752565b5b50565b6000604051905090565b600080fd5b600080fd5b6000819050919050565b6107d6816107c3565b81146107e157600080fd5b50565b6000813590506107f3816107cd565b92915050565b60006020828403121561080f5761080e6107b9565b5b600061081d848285016107e4565b91505092915050565b61082f816107c3565b82525050565b600073ffffffffffffffffffffffffffffffffffffffff82169050919050565b600061086082610835565b9050919050565b61087081610855565b82525050565b600060608201905061088b6000830186610826565b6108986020830185610867565b6108a56040830184610826565b949350505050565b60006020820190506108c26000830184610826565b92915050565b7f4e487b7100000000000000000000000000000000000000000000000000000000600052602160045260246000fd5b60038110610908576109076108c8565b5b50565b6000819050610919826108f7565b919050565b60006109298261090b565b9050919050565b6109398161091e565b82525050565b60006020820190506109546000830184610930565b92915050565b61096381610855565b811461096e57600080fd5b50565b6000813590506109808161095a565b92915050565b600080fd5b6000601f19601f8301169050919050565b7f4e487b7100000000000000000000000000000000000000000000000000000000600052604160045260246000fd5b6109d48261098b565b810181811067ffffffffffffffff821117156109f3576109f261099c565b5b80604052505050565b6000610a066107af565b9050610a1282826109cb565b919050565b600067ffffffffffffffff821115610a3257610a3161099c565b5b602082029050602081019050919050565b600080fd5b600080fd5b600067ffffffffffffffff821115610a6857610a6761099c565b5b610a718261098b565b9050602081019050919050565b82818337600083830152505050565b6000610aa0610a9b84610a4d565b6109fc565b905082815260208101848484011115610abc57610abb610a48565b5b610ac7848285610a7e565b509392505050565b600082601f830112610ae457610ae3610986565b5b8135610af4848260208601610a8d565b91505092915050565b6000610b10610b0b84610a17565b6109fc565b90508083825260208201905060208402830185811115610b3357610b32610a43565b5b835b81811015610b7a57803567ffffffffffffffff811115610b5857610b57610986565b5b808601610b658982610acf565b85526020850194505050602081019050610b35565b5050509392505050565b600082601f830112610b9957610b98610986565b5b8135610ba9848260208601610afd565b91505092915050565b600080600060608486031215610bcb57610bca6107b9565b5b6000610bd986828701610971565b9350506020610bea868287016107e4565b925050604084013567ffffffffffffffff811115610c0b57610c0a6107be565b5b610c1786828701610b84565b9150509250925092565b610c2a816107c3565b82525050565b610c3981610855565b82525050565b600081519050919050565b600082825260208201905092915050565b6000819050602082019050919050565b600081519050919050565b600082825260208201905092915050565b60005b83811015610ca5578082015181840152602081019050610c8a565b83811115610cb4576000848401525b50505050565b6000610cc582610c6b565b610ccf8185610c76565b9350610cdf818560208601610c87565b610ce88161098b565b840191505092915050565b6000610cff8383610cba565b905092915050565b6000602082019050919050565b6000610d1f82610c3f565b610d298185610c4a565b935083602082028501610d3b85610c5b565b8060005b85811015610d775784840389528151610d588582610cf3565b9450610d6383610d07565b925060208a01995050600181019050610d3f565b50829750879550505050505092915050565b6000608083016000830151610da16000860182610c21565b506020830151610db46020860182610c30565b506040830151610dc76040860182610c21565b5060608301518482036060860152610ddf8282610d14565b9150508091505092915050565b60006020820190508181036000830152610e068184610d89565b905092915050565b600082825260208201905092915050565b7f536f6c6f207075656465206167726567617220636f6d707261732e0000000000600082015250565b6000610e55601b83610e0e565b9150610e6082610e1f565b602082019050919050565b60006020820190508181036000830152610e8481610e48565b9050919050565b7f536f6c6f20707565646520636f6e73756c74617220636f6d707261732e000000600082015250565b6000610ec1601d83610e0e565b9150610ecc82610e8b565b602082019050919050565b60006020820190508181036000830152610ef081610eb4565b9050919050565b7f4e487b7100000000000000000000000000000000000000000000000000000000600052602260045260246000fd5b60006002820490506001821680610f3e57607f821691505b60208210811415610f5257610f51610ef7565b5b50919050565b7f4e487b7100000000000000000000000000000000000000000000000000000000600052601160045260246000fd5b6000610f92826107c3565b9150610f9d836107c3565b9250827fffffffffffffffffffffffffffffffffffffffffffffffffffffffffffffffff03821115610fd257610fd1610f58565b5b82820190509291505056fea2646970667358221220769d8325baf1742ef75b7829394063829a3f3624cb9f0b26e1443e79a542417f64736f6c634300080b0033",
  "immutableReferences": {},
  "source": "// SPDX-License-Identifier: MIT\r\npragma solidity >=0.4.22 <0.9.0;\r\n\r\ncontract Compras {\r\n  enum Estado { ACTIVO, LECTURA, BOOTSTRAP }\r\n  Estado public estado;\r\n  uint public compraCount;\r\n  mapping(uint => Compra) public compras;\r\n  \r\n  struct Compra {\r\n      uint _id;\r\n      address usuarioComprador;\r\n      uint precio;\r\n      string[] articulos;\r\n  }\r\n\r\n  modifier bootstrap() {\r\n    require(estado == Estado.BOOTSTRAP || estado == Estado.ACTIVO, \"Solo puede agregar compras.\"); \r\n    _;  \r\n  }\r\n\r\n  modifier lectura() {\r\n    require(estado == Estado.LECTURA || estado == Estado.ACTIVO, \"Solo puede consultar compras.\"); \r\n    _;\r\n  }\r\n\r\n  function obtenerCompra(uint _id) public lectura view returns(Compra memory) {   \r\n    return compras[_id];\r\n  }\r\n\r\n  function agregarCompra(address _comprador, uint _precio, string[] memory _articulos) public bootstrap {\r\n    incrementarCompras();\r\n    compras[compraCount] = Compra(compraCount, _comprador, _precio, _articulos);\r\n  }\r\n\r\n  function activar() public {\r\n    estado = Estado.ACTIVO;\r\n  }\r\n\r\n  function habilitarAgregarCompras() public {\r\n    estado = Estado.BOOTSTRAP;\r\n  }\r\n\r\n  function habilitarConsultaCompras() public {\r\n    estado = Estado.LECTURA;\r\n  }\r\n\r\n  function incrementarCompras() internal {\r\n     compraCount += 1;\r\n  }\r\n}\r\n",
  "sourcePath": "F:\\Truffle\\PHM\\Entrega4\\difficult\\contracts\\Compras.sol",
  "compiler": {
    "name": "solc",
    "version": "0.8.11+commit.d7f03943.Emscripten.clang"
  },
  "schemaVersion": "3.4.4",
  "updatedAt": "2022-06-22T03:26:23.657Z",
  "devdoc": {
    "kind": "dev",
    "methods": {},
    "version": 1
  },
  "userdoc": {
    "kind": "user",
    "methods": {},
    "version": 1
  }
}