{
  "contractName": "Usuarios",
  "abi": [
    {
      "inputs": [],
      "name": "usuario",
      "outputs": [
        {
          "internalType": "address",
          "name": "",
          "type": "address"
        }
      ],
      "stateMutability": "view",
      "type": "function"
    },
    {
      "inputs": [
        {
          "internalType": "uint256",
          "name": "_saldo",
          "type": "uint256"
        }
      ],
      "name": "agregarSaldo",
      "outputs": [],
      "stateMutability": "nonpayable",
      "type": "function"
    }
  ],
  "bytecode": "0x6080604052600060015534801561001557600080fd5b506102f4806100256000396000f3fe608060405234801561001057600080fd5b50600436106100365760003560e01c80634768e0121461003b5780639eddbd2714610059575b600080fd5b610043610075565b6040516100509190610139565b60405180910390f35b610073600480360381019061006e919061018f565b610099565b005b60008054906101000a900473ffffffffffffffffffffffffffffffffffffffff1681565b600081116100dc576040517f08c379a00000000000000000000000000000000000000000000000000000000081526004016100d390610219565b60405180910390fd5b80600160008282546100ee9190610268565b9250508190555050565b600073ffffffffffffffffffffffffffffffffffffffff82169050919050565b6000610123826100f8565b9050919050565b61013381610118565b82525050565b600060208201905061014e600083018461012a565b92915050565b600080fd5b6000819050919050565b61016c81610159565b811461017757600080fd5b50565b60008135905061018981610163565b92915050565b6000602082840312156101a5576101a4610154565b5b60006101b38482850161017a565b91505092915050565b600082825260208201905092915050565b7f456e7472656761206c6120746172617363612e00000000000000000000000000600082015250565b60006102036013836101bc565b915061020e826101cd565b602082019050919050565b60006020820190508181036000830152610232816101f6565b9050919050565b7f4e487b7100000000000000000000000000000000000000000000000000000000600052601160045260246000fd5b600061027382610159565b915061027e83610159565b9250827fffffffffffffffffffffffffffffffffffffffffffffffffffffffffffffffff038211156102b3576102b2610239565b5b82820190509291505056fea2646970667358221220df478a35d123f38c098a6d281d306494b3fcc227dcd03d82f00230c2c6b625b364736f6c634300080b0033",
  "immutableReferences": {},
  "source": "pragma solidity ^0.8.10;\r\n\r\ncontract Usuarios {\r\n    address public usuario;\r\n    uint internal saldo = 0;\r\n\r\n    function agregarSaldo(uint _saldo) public {\r\n        require(_saldo > 0, \"Entrega la tarasca.\");\r\n        saldo += _saldo;\r\n    }\r\n}",
  "sourcePath": "F:\\Truffle\\PHM\\Entrega4\\difficult\\contracts\\Usuarios.sol",
  "compiler": {
    "name": "solc",
    "version": "0.8.11+commit.d7f03943.Emscripten.clang"
  },
  "schemaVersion": "3.4.4",
  "updatedAt": "2022-06-22T03:26:23.662Z",
  "devdoc": {
    "kind": "dev",
    "methods": {},
    "version": 1
  },
  "userdoc": {
    "kind": "user",
    "methods": {},
    "version": 1
  }
}